{
  "contractName": "Main",
  "abi": [
    {
      "inputs": [],
      "stateMutability": "nonpayable",
      "type": "constructor"
    },
    {
      "inputs": [],
      "name": "contrato",
      "outputs": [
        {
          "internalType": "address",
          "name": "",
          "type": "address"
        }
      ],
      "stateMutability": "view",
      "type": "function"
    },
    {
      "inputs": [],
      "name": "owner",
      "outputs": [
        {
          "internalType": "address",
          "name": "",
          "type": "address"
        }
      ],
      "stateMutability": "view",
      "type": "function"
    },
    {
      "inputs": [],
      "name": "getOwner",
      "outputs": [
        {
          "internalType": "address",
          "name": "",
          "type": "address"
        }
      ],
      "stateMutability": "view",
      "type": "function"
    },
    {
      "inputs": [],
      "name": "getContract",
      "outputs": [
        {
          "internalType": "address",
          "name": "",
          "type": "address"
        }
      ],
      "stateMutability": "view",
      "type": "function"
    },
    {
      "inputs": [
        {
          "internalType": "address",
          "name": "_destinatario",
          "type": "address"
        },
        {
          "internalType": "uint256",
          "name": "_numTokens",
          "type": "uint256"
        }
      ],
      "name": "sendTokens",
      "outputs": [],
      "stateMutability": "payable",
      "type": "function"
    },
    {
      "inputs": [
        {
          "internalType": "address",
          "name": "_direccion",
          "type": "address"
        }
      ],
      "name": "balanceOfAddress",
      "outputs": [
        {
          "internalType": "uint256",
          "name": "",
          "type": "uint256"
        }
      ],
      "stateMutability": "view",
      "type": "function"
    },
    {
      "inputs": [],
      "name": "getTotalBalance",
      "outputs": [
        {
          "internalType": "uint256",
          "name": "",
          "type": "uint256"
        }
      ],
      "stateMutability": "view",
      "type": "function"
    },
    {
      "inputs": [
        {
          "internalType": "uint256",
          "name": "_numTokens",
          "type": "uint256"
        }
      ],
      "name": "generaTokens",
      "outputs": [],
      "stateMutability": "nonpayable",
      "type": "function"
    }
  ],
  "bytecode": "0x608060405234801561001057600080fd5b506127106040516100209061010d565b61002a9190610129565b604051809103906000f080158015610046573d6000803e3d6000fd5b506000806101000a81548173ffffffffffffffffffffffffffffffffffffffff021916908373ffffffffffffffffffffffffffffffffffffffff16021790555033600160006101000a81548173ffffffffffffffffffffffffffffffffffffffff021916908373ffffffffffffffffffffffffffffffffffffffff16021790555030600260006101000a81548173ffffffffffffffffffffffffffffffffffffffff021916908373ffffffffffffffffffffffffffffffffffffffff160217905550610160565b610e7f80610cff83390190565b6101238161014e565b82525050565b600060208201905061013e600083018461011a565b92915050565b6000819050919050565b600061015982610144565b9050919050565b610b908061016f6000396000f3fe60806040526004361061007b5760003560e01c8063893d20e81161004e578063893d20e81461012d5780638da5cb5b14610158578063958f85bd14610183578063e1a01e67146101ae5761007b565b806305ab421d1461008057806312b583491461009c5780634947830d146100c757806386212b8f146100f0575b600080fd5b61009a60048036038101906100959190610796565b6101d9565b005b3480156100a857600080fd5b506100b16103c0565b6040516100be9190610aa1565b60405180910390f35b3480156100d357600080fd5b506100ee60048036038101906100e991906107fb565b610493565b005b3480156100fc57600080fd5b506101176004803603810190610112919061076d565b6105b2565b6040516101249190610aa1565b60405180910390f35b34801561013957600080fd5b50610142610665565b60405161014f91906109dd565b60405180910390f35b34801561016457600080fd5b5061016d61068f565b60405161017a91906109dd565b60405180910390f35b34801561018f57600080fd5b506101986106b5565b6040516101a591906109dd565b60405180910390f35b3480156101ba57600080fd5b506101c36106df565b6040516101d091906109dd565b60405180910390f35b600a81111561021d576040517f08c379a000000000000000000000000000000000000000000000000000000000815260040161021490610a41565b60405180910390fd5b600061022882610705565b90508034101561026d576040517f08c379a000000000000000000000000000000000000000000000000000000000815260040161026490610a81565b60405180910390fd5b600081340390503373ffffffffffffffffffffffffffffffffffffffff166108fc829081150290604051600060405180830381858888f193505050501580156102ba573d6000803e3d6000fd5b5060006102c56103c0565b90508084111561030a576040517f08c379a000000000000000000000000000000000000000000000000000000000815260040161030190610a61565b60405180910390fd5b6000809054906101000a900473ffffffffffffffffffffffffffffffffffffffff1673ffffffffffffffffffffffffffffffffffffffff1663a9059cbb86866040518363ffffffff1660e01b81526004016103669291906109f8565b602060405180830381600087803b15801561038057600080fd5b505af1158015610394573d6000803e3d6000fd5b505050506040513d601f19601f820116820180604052508101906103b891906107d2565b505050505050565b60008060009054906101000a900473ffffffffffffffffffffffffffffffffffffffff1673ffffffffffffffffffffffffffffffffffffffff166370a08231600260009054906101000a900473ffffffffffffffffffffffffffffffffffffffff166040518263ffffffff1660e01b815260040161043e91906109dd565b60206040518083038186803b15801561045657600080fd5b505afa15801561046a573d6000803e3d6000fd5b505050506040513d601f19601f8201168201806040525081019061048e9190610824565b905090565b600160009054906101000a900473ffffffffffffffffffffffffffffffffffffffff1673ffffffffffffffffffffffffffffffffffffffff163373ffffffffffffffffffffffffffffffffffffffff1614610523576040517f08c379a000000000000000000000000000000000000000000000000000000000815260040161051a90610a21565b60405180910390fd5b6000809054906101000a900473ffffffffffffffffffffffffffffffffffffffff1673ffffffffffffffffffffffffffffffffffffffff16631d43cc98826040518263ffffffff1660e01b815260040161057d9190610aa1565b600060405180830381600087803b15801561059757600080fd5b505af11580156105ab573d6000803e3d6000fd5b5050505050565b60008060009054906101000a900473ffffffffffffffffffffffffffffffffffffffff1673ffffffffffffffffffffffffffffffffffffffff166370a08231836040518263ffffffff1660e01b815260040161060e91906109dd565b60206040518083038186803b15801561062657600080fd5b505afa15801561063a573d6000803e3d6000fd5b505050506040513d601f19601f8201168201806040525081019061065e9190610824565b9050919050565b6000600160009054906101000a900473ffffffffffffffffffffffffffffffffffffffff16905090565b600160009054906101000a900473ffffffffffffffffffffffffffffffffffffffff1681565b6000600260009054906101000a900473ffffffffffffffffffffffffffffffffffffffff16905090565b600260009054906101000a900473ffffffffffffffffffffffffffffffffffffffff1681565b6000670de0b6b3a764000082029050919050565b60008135905061072881610b15565b92915050565b60008151905061073d81610b2c565b92915050565b60008135905061075281610b43565b92915050565b60008151905061076781610b43565b92915050565b60006020828403121561077f57600080fd5b600061078d84828501610719565b91505092915050565b600080604083850312156107a957600080fd5b60006107b785828601610719565b92505060206107c885828601610743565b9150509250929050565b6000602082840312156107e457600080fd5b60006107f28482850161072e565b91505092915050565b60006020828403121561080d57600080fd5b600061081b84828501610743565b91505092915050565b60006020828403121561083657600080fd5b600061084484828501610758565b91505092915050565b61085681610acd565b82525050565b6000610869602383610abc565b91507f4e6f207469656e65207065726d69736f73207061726120657374612066756e6360008301527f696f6e00000000000000000000000000000000000000000000000000000000006020830152604082019050919050565b60006108cf602783610abc565b91507f4c612063616e746964616420646520746f6b656e732065732064656d6173696160008301527f646f20616c7461000000000000000000000000000000000000000000000000006020830152604082019050919050565b6000610935602083610abc565b91507f436f6d70726120756e206e756d65726f206d656e6f7220646520746f6b656e736000830152602082019050919050565b6000610975602a83610abc565b91507f436f6d707261206d656e6f7320746f6b656e7320206f207061676120636f6e2060008301527f6d617320657468657273000000000000000000000000000000000000000000006020830152604082019050919050565b6109d781610b0b565b82525050565b60006020820190506109f2600083018461084d565b92915050565b6000604082019050610a0d600083018561084d565b610a1a60208301846109ce565b9392505050565b60006020820190508181036000830152610a3a8161085c565b9050919050565b60006020820190508181036000830152610a5a816108c2565b9050919050565b60006020820190508181036000830152610a7a81610928565b9050919050565b60006020820190508181036000830152610a9a81610968565b9050919050565b6000602082019050610ab660008301846109ce565b92915050565b600082825260208201905092915050565b6000610ad882610aeb565b9050919050565b60008115159050919050565b600073ffffffffffffffffffffffffffffffffffffffff82169050919050565b6000819050919050565b610b1e81610acd565b8114610b2957600080fd5b50565b610b3581610adf565b8114610b4057600080fd5b50565b610b4c81610b0b565b8114610b5757600080fd5b5056fea26469706673582212206d37958a4f8efd7752982cb9e0a1176a2db8f4ea593810ea06db4b5039aa634f64736f6c63430006080033608060405234801561001057600080fd5b50604051610e7f380380610e7f83398181016040528101906100329190610099565b806002819055506002546000803373ffffffffffffffffffffffffffffffffffffffff1673ffffffffffffffffffffffffffffffffffffffff16815260200190815260200160002081905550506100e3565b600081519050610093816100cc565b92915050565b6000602082840312156100ab57600080fd5b60006100b984828501610084565b91505092915050565b6000819050919050565b6100d5816100c2565b81146100e057600080fd5b50565b610d8d806100f26000396000f3fe608060405234801561001057600080fd5b506004361061009e5760003560e01c8063313ce56711610066578063313ce5671461015b57806370a082311461017957806395d89b41146101a9578063a9059cbb146101c7578063dd62ed3e146101f75761009e565b806306fdde03146100a3578063095ea7b3146100c157806318160ddd146100f15780631d43cc981461010f57806323b872dd1461012b575b600080fd5b6100ab610227565b6040516100b89190610c1c565b60405180910390f35b6100db60048036038101906100d69190610b36565b610260565b6040516100e89190610c01565b60405180910390f35b6100f9610352565b6040516101069190610c3e565b60405180910390f35b61012960048036038101906101249190610b72565b61035c565b005b61014560048036038101906101409190610ae7565b6103bb565b6040516101529190610c01565b60405180910390f35b610163610736565b6040516101709190610c59565b60405180910390f35b610193600480360381019061018e9190610a82565b61073b565b6040516101a09190610c3e565b60405180910390f35b6101b1610783565b6040516101be9190610c1c565b60405180910390f35b6101e160048036038101906101dc9190610b36565b6107bc565b6040516101ee9190610c01565b60405180910390f35b610211600480360381019061020c9190610aab565b61099e565b60405161021e9190610c3e565b60405180910390f35b6040518060400160405280601181526020017f4552433230426c6f636b636861696e415a00000000000000000000000000000081525081565b600081600160003373ffffffffffffffffffffffffffffffffffffffff1673ffffffffffffffffffffffffffffffffffffffff16815260200190815260200160002060008573ffffffffffffffffffffffffffffffffffffffff1673ffffffffffffffffffffffffffffffffffffffff168152602001908152602001600020819055508273ffffffffffffffffffffffffffffffffffffffff163373ffffffffffffffffffffffffffffffffffffffff167f8c5be1e5ebec7d5bd14f71427d1e84f3dd0314c0f7b2291e5b200ac8c7c3b925846040516103409190610c3e565b60405180910390a36001905092915050565b6000600254905090565b80600260008282540192505081905550806000803373ffffffffffffffffffffffffffffffffffffffff1673ffffffffffffffffffffffffffffffffffffffff1681526020019081526020016000206000828254019250508190555050565b60008060008573ffffffffffffffffffffffffffffffffffffffff1673ffffffffffffffffffffffffffffffffffffffff1681526020019081526020016000205482111561040857600080fd5b600160008573ffffffffffffffffffffffffffffffffffffffff1673ffffffffffffffffffffffffffffffffffffffff16815260200190815260200160002060003373ffffffffffffffffffffffffffffffffffffffff1673ffffffffffffffffffffffffffffffffffffffff1681526020019081526020016000205482111561049157600080fd5b6104e2826000808773ffffffffffffffffffffffffffffffffffffffff1673ffffffffffffffffffffffffffffffffffffffff16815260200190815260200160002054610a2590919063ffffffff16565b6000808673ffffffffffffffffffffffffffffffffffffffff1673ffffffffffffffffffffffffffffffffffffffff168152602001908152602001600020819055506105b382600160008773ffffffffffffffffffffffffffffffffffffffff1673ffffffffffffffffffffffffffffffffffffffff16815260200190815260200160002060003373ffffffffffffffffffffffffffffffffffffffff1673ffffffffffffffffffffffffffffffffffffffff16815260200190815260200160002054610a2590919063ffffffff16565b600160008673ffffffffffffffffffffffffffffffffffffffff1673ffffffffffffffffffffffffffffffffffffffff16815260200190815260200160002060003373ffffffffffffffffffffffffffffffffffffffff1673ffffffffffffffffffffffffffffffffffffffff16815260200190815260200160002081905550610684826000808673ffffffffffffffffffffffffffffffffffffffff1673ffffffffffffffffffffffffffffffffffffffff16815260200190815260200160002054610a3c90919063ffffffff16565b6000808573ffffffffffffffffffffffffffffffffffffffff1673ffffffffffffffffffffffffffffffffffffffff168152602001908152602001600020819055508273ffffffffffffffffffffffffffffffffffffffff168473ffffffffffffffffffffffffffffffffffffffff167fddf252ad1be2c89b69c2b068fc378daa952ba7f163c4a11628f55a4df523b3ef846040516107239190610c3e565b60405180910390a3600190509392505050565b600281565b60008060008373ffffffffffffffffffffffffffffffffffffffff1673ffffffffffffffffffffffffffffffffffffffff168152602001908152602001600020549050919050565b6040518060400160405280600381526020017f455243000000000000000000000000000000000000000000000000000000000081525081565b60008060003373ffffffffffffffffffffffffffffffffffffffff1673ffffffffffffffffffffffffffffffffffffffff1681526020019081526020016000205482111561080957600080fd5b61085a826000803373ffffffffffffffffffffffffffffffffffffffff1673ffffffffffffffffffffffffffffffffffffffff16815260200190815260200160002054610a2590919063ffffffff16565b6000803373ffffffffffffffffffffffffffffffffffffffff1673ffffffffffffffffffffffffffffffffffffffff168152602001908152602001600020819055506108ed826000808673ffffffffffffffffffffffffffffffffffffffff1673ffffffffffffffffffffffffffffffffffffffff16815260200190815260200160002054610a3c90919063ffffffff16565b6000808573ffffffffffffffffffffffffffffffffffffffff1673ffffffffffffffffffffffffffffffffffffffff168152602001908152602001600020819055508273ffffffffffffffffffffffffffffffffffffffff163373ffffffffffffffffffffffffffffffffffffffff167fddf252ad1be2c89b69c2b068fc378daa952ba7f163c4a11628f55a4df523b3ef8460405161098c9190610c3e565b60405180910390a36001905092915050565b6000600160008473ffffffffffffffffffffffffffffffffffffffff1673ffffffffffffffffffffffffffffffffffffffff16815260200190815260200160002060008373ffffffffffffffffffffffffffffffffffffffff1673ffffffffffffffffffffffffffffffffffffffff16815260200190815260200160002054905092915050565b600082821115610a3157fe5b818303905092915050565b600080828401905083811015610a4e57fe5b8091505092915050565b600081359050610a6781610d29565b92915050565b600081359050610a7c81610d40565b92915050565b600060208284031215610a9457600080fd5b6000610aa284828501610a58565b91505092915050565b60008060408385031215610abe57600080fd5b6000610acc85828601610a58565b9250506020610add85828601610a58565b9150509250929050565b600080600060608486031215610afc57600080fd5b6000610b0a86828701610a58565b9350506020610b1b86828701610a58565b9250506040610b2c86828701610a6d565b9150509250925092565b60008060408385031215610b4957600080fd5b6000610b5785828601610a58565b9250506020610b6885828601610a6d565b9150509250929050565b600060208284031215610b8457600080fd5b6000610b9284828501610a6d565b91505092915050565b610ba481610ca2565b82525050565b6000610bb582610c74565b610bbf8185610c7f565b9350610bcf818560208601610ce5565b610bd881610d18565b840191505092915050565b610bec81610cce565b82525050565b610bfb81610cd8565b82525050565b6000602082019050610c166000830184610b9b565b92915050565b60006020820190508181036000830152610c368184610baa565b905092915050565b6000602082019050610c536000830184610be3565b92915050565b6000602082019050610c6e6000830184610bf2565b92915050565b600081519050919050565b600082825260208201905092915050565b6000610c9b82610cae565b9050919050565b60008115159050919050565b600073ffffffffffffffffffffffffffffffffffffffff82169050919050565b6000819050919050565b600060ff82169050919050565b60005b83811015610d03578082015181840152602081019050610ce8565b83811115610d12576000848401525b50505050565b6000601f19601f8301169050919050565b610d3281610c90565b8114610d3d57600080fd5b50565b610d4981610cce565b8114610d5457600080fd5b5056fea264697066735822122099d715b16b129866f2c3302ae3c4ec7acfa3079b6aa2b156f2bff1695de282fb64736f6c63430006080033",
  "immutableReferences": {},
  "source": "// SPDX-License-Identifier: MIT\r\npragma solidity >=0.4.4 <0.7.0;\r\npragma experimental ABIEncoderV2;\r\n\r\nimport \"./ERC20.sol\";\r\n\r\ncontract Main {\r\n    //Instancia del contrato token\r\n    ERC20Basic private token;\r\n\r\n    //Dueño del contrato\r\n    address public owner;\r\n\r\n    //Direccion del Smart Contract\r\n    address public contrato;\r\n\r\n    constructor() public {\r\n        token = new ERC20Basic(10000);\r\n        owner = msg.sender;\r\n        contrato = address(this);\r\n    }\r\n\r\n    function getOwner() public view returns (address){\r\n        return owner;\r\n    }\r\n\r\n    function getContract() public view returns (address){\r\n        return contrato;\r\n    }\r\n\r\n    //Establecer el precio del token\r\n    function precioTokens(uint _numTokens) internal pure returns (uint){\r\n        //Conversion de tokens a ethers : 1 token -> 1 Ether\r\n        return _numTokens * (1 ether);\r\n    }\r\n    // Compramos tokens mediante: direccion destino y cantidad de tokens\r\n    function sendTokens(address _destinatario, uint _numTokens) public payable {\r\n        // Restriccion para filtrar el numero de tokens a comprar\r\n        require(_numTokens <= 10, \"La cantidad de tokens es demasiado alta\");\r\n        // Establecer un costo\r\n        uint coste = precioTokens(_numTokens);\r\n        // Se evalua la cantidad de Ethers que paga el cliente\r\n        require(msg.value >= coste, \"Compra menos tokens  o paga con mas ethers\");\r\n        // Diferencia de lo que el cliente paga\r\n        uint returnValue = msg.value - coste;\r\n        // Retorna la cantidad de tokens determinada\r\n        msg.sender.transfer(returnValue);\r\n        // Obtener el balance de tokens disponibles\r\n        uint balance = getTotalBalance();\r\n        require(_numTokens <= balance, \"Compra un numero menor de tokens\");\r\n        // Transferencia de los tokens al _destinatario\r\n        token.transfer(_destinatario, _numTokens);\r\n    }\r\n\r\n    // Obtenemos el balance de tokens de una direccion\r\n    function balanceOfAddress(address _direccion) public view returns (uint){\r\n        return token.balanceOf(_direccion);\r\n    }\r\n\r\n    // Obtener el balance de tokens total del smart contract\r\n    function getTotalBalance() public view returns (uint){\r\n        return token.balanceOf(contrato);\r\n    }\r\n\r\n    // Generacion de tokens al contrato\r\n    function generaTokens(uint _numTokens) public onlyByOwner {\r\n        token.increaseTotalSupply(_numTokens);\r\n    }\r\n\r\n    // Modificador que permita  la ejecucion tan solo por el owner\r\n    modifier onlyByOwner(){\r\n        require(msg.sender == owner, \"No tiene permisos para esta funcion\");\r\n        _;\r\n    }\r\n}\r\n",
  "sourcePath": "D:\\notebook\\Luciano Pulido\\Programacion\\Dapps\\ERC20\\src\\contracts\\Main.sol",
  "compiler": {
    "name": "solc",
    "version": "0.6.8+commit.0bbfe453.Emscripten.clang"
  },
  "schemaVersion": "3.4.7",
  "updatedAt": "2022-06-12T23:42:54.980Z",
  "devdoc": {
    "methods": {}
  },
  "userdoc": {
    "methods": {}
  }
}